{
  "contractName": "fruittrack",
  "abi": [
    {
      "inputs": [],
      "payable": false,
      "stateMutability": "nonpayable",
      "type": "constructor"
    },
    {
      "anonymous": false,
      "inputs": [
        {
          "indexed": false,
          "name": "name",
          "type": "string"
        }
      ],
      "name": "Register",
      "type": "event"
    },
    {
      "constant": false,
      "inputs": [
        {
          "name": "pub",
          "type": "address"
        },
        {
          "name": "name",
          "type": "string"
        },
        {
          "name": "cityState",
          "type": "string"
        },
        {
          "name": "country",
          "type": "string"
        }
      ],
      "name": "newfarmer",
      "outputs": [],
      "payable": false,
      "stateMutability": "nonpayable",
      "type": "function"
    },
    {
      "constant": false,
      "inputs": [
        {
          "name": "pub",
          "type": "address"
        },
        {
          "name": "name",
          "type": "string"
        },
        {
          "name": "cityState",
          "type": "string"
        },
        {
          "name": "country",
          "type": "string"
        }
      ],
      "name": "newdistri",
      "outputs": [],
      "payable": false,
      "stateMutability": "nonpayable",
      "type": "function"
    },
    {
      "constant": false,
      "inputs": [
        {
          "name": "pub",
          "type": "address"
        },
        {
          "name": "name",
          "type": "string"
        },
        {
          "name": "cityState",
          "type": "string"
        },
        {
          "name": "country",
          "type": "string"
        }
      ],
      "name": "newmarket",
      "outputs": [],
      "payable": false,
      "stateMutability": "nonpayable",
      "type": "function"
    },
    {
      "constant": false,
      "inputs": [
        {
          "name": "code",
          "type": "string"
        },
        {
          "name": "_name",
          "type": "string"
        },
        {
          "name": "_desc",
          "type": "string"
        }
      ],
      "name": "newfruit",
      "outputs": [],
      "payable": false,
      "stateMutability": "nonpayable",
      "type": "function"
    },
    {
      "constant": false,
      "inputs": [
        {
          "name": "trackid",
          "type": "uint256"
        },
        {
          "name": "code",
          "type": "string"
        },
        {
          "name": "next_",
          "type": "address"
        },
        {
          "name": "qty",
          "type": "uint256"
        }
      ],
      "name": "sendFruitFarmer",
      "outputs": [],
      "payable": false,
      "stateMutability": "nonpayable",
      "type": "function"
    },
    {
      "constant": false,
      "inputs": [
        {
          "name": "trackid",
          "type": "uint256"
        },
        {
          "name": "next_",
          "type": "address"
        },
        {
          "name": "qty",
          "type": "uint256"
        }
      ],
      "name": "sendFruitDistributor",
      "outputs": [],
      "payable": false,
      "stateMutability": "nonpayable",
      "type": "function"
    },
    {
      "constant": false,
      "inputs": [
        {
          "name": "trackid",
          "type": "uint256"
        }
      ],
      "name": "recieve_dis",
      "outputs": [],
      "payable": false,
      "stateMutability": "nonpayable",
      "type": "function"
    },
    {
      "constant": false,
      "inputs": [
        {
          "name": "trackid",
          "type": "uint256"
        }
      ],
      "name": "recieve_mar",
      "outputs": [],
      "payable": false,
      "stateMutability": "nonpayable",
      "type": "function"
    },
    {
      "constant": false,
      "inputs": [
        {
          "name": "x",
          "type": "uint256"
        },
        {
          "name": "farmer_",
          "type": "address"
        }
      ],
      "name": "setRating",
      "outputs": [],
      "payable": false,
      "stateMutability": "nonpayable",
      "type": "function"
    },
    {
      "constant": true,
      "inputs": [
        {
          "name": "farmer_",
          "type": "address"
        }
      ],
      "name": "getRating",
      "outputs": [
        {
          "name": "",
          "type": "uint256"
        }
      ],
      "payable": false,
      "stateMutability": "view",
      "type": "function"
    },
    {
      "constant": true,
      "inputs": [
        {
          "name": "code",
          "type": "string"
        }
      ],
      "name": "getFruit",
      "outputs": [
        {
          "name": "",
          "type": "string"
        },
        {
          "name": "",
          "type": "string"
        },
        {
          "name": "",
          "type": "address"
        },
        {
          "name": "",
          "type": "uint256"
        },
        {
          "name": "",
          "type": "address[2]"
        },
        {
          "name": "",
          "type": "uint256[2]"
        },
        {
          "name": "",
          "type": "uint256[2]"
        }
      ],
      "payable": false,
      "stateMutability": "view",
      "type": "function"
    },
    {
      "constant": true,
      "inputs": [
        {
          "name": "account",
          "type": "address"
        }
      ],
      "name": "getFarm",
      "outputs": [
        {
          "name": "",
          "type": "string"
        },
        {
          "name": "",
          "type": "string"
        },
        {
          "name": "",
          "type": "string"
        }
      ],
      "payable": false,
      "stateMutability": "view",
      "type": "function"
    },
    {
      "constant": true,
      "inputs": [
        {
          "name": "account",
          "type": "address"
        }
      ],
      "name": "getDistri",
      "outputs": [
        {
          "name": "",
          "type": "string"
        },
        {
          "name": "",
          "type": "string"
        },
        {
          "name": "",
          "type": "string"
        }
      ],
      "payable": false,
      "stateMutability": "view",
      "type": "function"
    },
    {
      "constant": false,
      "inputs": [
        {
          "name": "sCode",
          "type": "uint256"
        },
        {
          "name": "status",
          "type": "uint256"
        },
        {
          "name": "qFruit",
          "type": "uint256"
        }
      ],
      "name": "updateQuality",
      "outputs": [],
      "payable": false,
      "stateMutability": "nonpayable",
      "type": "function"
    },
    {
      "constant": true,
      "inputs": [
        {
          "name": "account",
          "type": "address"
        }
      ],
      "name": "getMark",
      "outputs": [
        {
          "name": "",
          "type": "string"
        },
        {
          "name": "",
          "type": "string"
        },
        {
          "name": "",
          "type": "string"
        }
      ],
      "payable": false,
      "stateMutability": "view",
      "type": "function"
    },
    {
      "constant": true,
      "inputs": [
        {
          "name": "track",
          "type": "uint256"
        }
      ],
      "name": "getShip",
      "outputs": [
        {
          "name": "",
          "type": "string"
        },
        {
          "name": "",
          "type": "address"
        },
        {
          "name": "",
          "type": "address"
        },
        {
          "name": "",
          "type": "address"
        },
        {
          "name": "",
          "type": "uint256[2]"
        },
        {
          "name": "",
          "type": "uint256[2]"
        },
        {
          "name": "",
          "type": "uint256"
        }
      ],
      "payable": false,
      "stateMutability": "view",
      "type": "function"
    },
    {
      "constant": true,
      "inputs": [
        {
          "name": "account",
          "type": "address"
        }
      ],
      "name": "getTFarm",
      "outputs": [
        {
          "name": "",
          "type": "uint256[]"
        }
      ],
      "payable": false,
      "stateMutability": "view",
      "type": "function"
    },
    {
      "constant": true,
      "inputs": [
        {
          "name": "account",
          "type": "address"
        }
      ],
      "name": "getTDis",
      "outputs": [
        {
          "name": "",
          "type": "uint256[]"
        }
      ],
      "payable": false,
      "stateMutability": "view",
      "type": "function"
    },
    {
      "constant": true,
      "inputs": [
        {
          "name": "account",
          "type": "address"
        }
      ],
      "name": "getM",
      "outputs": [
        {
          "name": "",
          "type": "uint256[]"
        }
      ],
      "payable": false,
      "stateMutability": "view",
      "type": "function"
    }
  ],
  "bytecode": "0x608060405234801561001057600080fd5b50336000806101000a81548173ffffffffffffffffffffffffffffffffffffffff021916908373ffffffffffffffffffffffffffffffffffffffff160217905550613b72806100606000396000f300608060405260043610610107576000357c0100000000000000000000000000000000000000000000000000000000900463ffffffff1680630919be791461010c5780631e70e0e1146101a457806339c7e9c2146103385780633bfc187c146103d05780634025b22d14610564578063435ebc28146107085780634cebcec71461089c5780635691bb01146108e957806364567b7d146109405780636d0b4275146109dd5780637f2a4f4d14610ad257806380fc9c0e14610be757806389fa8a1014610c3e5780638e06a56714610c7f578063a1e4328b14610d17578063a4712fb714610d44578063adc658ef14610d71578063c8ba220814610e86578063f52570dc1461109b575b600080fd5b34801561011857600080fd5b5061014d600480360381019080803573ffffffffffffffffffffffffffffffffffffffff1690602001909291905050506111b0565b6040518080602001828103825283818151815260200191508051906020019060200280838360005b83811015610190578082015181840152602081019050610175565b505050509050019250505060405180910390f35b3480156101b057600080fd5b506101e5600480360381019080803573ffffffffffffffffffffffffffffffffffffffff16906020019092919050505061124a565b60405180806020018060200180602001848103845287818151815260200191508051906020019080838360005b8381101561022d578082015181840152602081019050610212565b50505050905090810190601f16801561025a5780820380516001836020036101000a031916815260200191505b50848103835286818151815260200191508051906020019080838360005b83811015610293578082015181840152602081019050610278565b50505050905090810190601f1680156102c05780820380516001836020036101000a031916815260200191505b50848103825285818151815260200191508051906020019080838360005b838110156102f95780820151818401526020810190506102de565b50505050905090810190601f1680156103265780820380516001836020036101000a031916815260200191505b50965050505050505060405180910390f35b34801561034457600080fd5b50610379600480360381019080803573ffffffffffffffffffffffffffffffffffffffff1690602001909291905050506114f6565b6040518080602001828103825283818151815260200191508051906020019060200280838360005b838110156103bc5780820151818401526020810190506103a1565b505050509050019250505060405180910390f35b3480156103dc57600080fd5b50610411600480360381019080803573ffffffffffffffffffffffffffffffffffffffff169060200190929190505050611590565b60405180806020018060200180602001848103845287818151815260200191508051906020019080838360005b8381101561045957808201518184015260208101905061043e565b50505050905090810190601f1680156104865780820380516001836020036101000a031916815260200191505b50848103835286818151815260200191508051906020019080838360005b838110156104bf5780820151818401526020810190506104a4565b50505050905090810190601f1680156104ec5780820380516001836020036101000a031916815260200191505b50848103825285818151815260200191508051906020019080838360005b8381101561052557808201518184015260208101905061050a565b50505050905090810190601f1680156105525780820380516001836020036101000a031916815260200191505b50965050505050505060405180910390f35b34801561057057600080fd5b5061058f6004803603810190808035906020019092919050505061183c565b60405180806020018873ffffffffffffffffffffffffffffffffffffffff1673ffffffffffffffffffffffffffffffffffffffff1681526020018773ffffffffffffffffffffffffffffffffffffffff1673ffffffffffffffffffffffffffffffffffffffff1681526020018673ffffffffffffffffffffffffffffffffffffffff1673ffffffffffffffffffffffffffffffffffffffff16815260200185600260200280838360005b83811015610654578082015181840152602081019050610639565b5050505090500184600260200280838360005b83811015610682578082015181840152602081019050610667565b50505050905001838152602001828103825289818151815260200191508051906020019080838360005b838110156106c75780820151818401526020810190506106ac565b50505050905090810190601f1680156106f45780820380516001836020036101000a031916815260200191505b509850505050505050505060405180910390f35b34801561071457600080fd5b50610749600480360381019080803573ffffffffffffffffffffffffffffffffffffffff169060200190929190505050611a9b565b60405180806020018060200180602001848103845287818151815260200191508051906020019080838360005b83811015610791578082015181840152602081019050610776565b50505050905090810190601f1680156107be5780820380516001836020036101000a031916815260200191505b50848103835286818151815260200191508051906020019080838360005b838110156107f75780820151818401526020810190506107dc565b50505050905090810190601f1680156108245780820380516001836020036101000a031916815260200191505b50848103825285818151815260200191508051906020019080838360005b8381101561085d578082015181840152602081019050610842565b50505050905090810190601f16801561088a5780820380516001836020036101000a031916815260200191505b50965050505050505060405180910390f35b3480156108a857600080fd5b506108e760048036038101908080359060200190929190803573ffffffffffffffffffffffffffffffffffffffff169060200190929190505050611d47565b005b3480156108f557600080fd5b5061093e60048036038101908080359060200190929190803573ffffffffffffffffffffffffffffffffffffffff16906020019092919080359060200190929190505050611eff565b005b34801561094c57600080fd5b506109db60048036038101908080359060200190929190803590602001908201803590602001908080601f0160208091040260200160405190810160405280939291908181526020018383808284378201915050505050509192919290803573ffffffffffffffffffffffffffffffffffffffff169060200190929190803590602001909291905050506120b7565b005b3480156109e957600080fd5b50610ad0600480360381019080803590602001908201803590602001908080601f0160208091040260200160405190810160405280939291908181526020018383808284378201915050505050509192919290803590602001908201803590602001908080601f0160208091040260200160405190810160405280939291908181526020018383808284378201915050505050509192919290803590602001908201803590602001908080601f0160208091040260200160405190810160405280939291908181526020018383808284378201915050505050509192919290505050612373565b005b348015610ade57600080fd5b50610be5600480360381019080803573ffffffffffffffffffffffffffffffffffffffff169060200190929190803590602001908201803590602001908080601f0160208091040260200160405190810160405280939291908181526020018383808284378201915050505050509192919290803590602001908201803590602001908080601f0160208091040260200160405190810160405280939291908181526020018383808284378201915050505050509192919290803590602001908201803590602001908080601f0160208091040260200160405190810160405280939291908181526020018383808284378201915050505050509192919290505050612600565b005b348015610bf357600080fd5b50610c28600480360381019080803573ffffffffffffffffffffffffffffffffffffffff16906020019092919050505061285d565b6040518082815260200191505060405180910390f35b348015610c4a57600080fd5b50610c7d6004803603810190808035906020019092919080359060200190929190803590602001909291905050506128f9565b005b348015610c8b57600080fd5b50610cc0600480360381019080803573ffffffffffffffffffffffffffffffffffffffff16906020019092919050505061299c565b6040518080602001828103825283818151815260200191508051906020019060200280838360005b83811015610d03578082015181840152602081019050610ce8565b505050509050019250505060405180910390f35b348015610d2357600080fd5b50610d4260048036038101908080359060200190929190505050612a36565b005b348015610d5057600080fd5b50610d6f60048036038101908080359060200190929190505050612d29565b005b348015610d7d57600080fd5b50610e84600480360381019080803573ffffffffffffffffffffffffffffffffffffffff169060200190929190803590602001908201803590602001908080601f0160208091040260200160405190810160405280939291908181526020018383808284378201915050505050509192919290803590602001908201803590602001908080601f0160208091040260200160405190810160405280939291908181526020018383808284378201915050505050509192919290803590602001908201803590602001908080601f016020809104026020016040519081016040528093929190818152602001838380828437820191505050505050919291929050505061301d565b005b348015610e9257600080fd5b50610eed600480360381019080803590602001908201803590602001908080601f016020809104026020016040519081016040528093929190818152602001838380828437820191505050505050919291929050505061327a565b6040518080602001806020018873ffffffffffffffffffffffffffffffffffffffff1673ffffffffffffffffffffffffffffffffffffffff16815260200187815260200186600260200280838360005b83811015610f58578082015181840152602081019050610f3d565b5050505090500185600260200280838360005b83811015610f86578082015181840152602081019050610f6b565b5050505090500184600260200280838360005b83811015610fb4578082015181840152602081019050610f99565b5050505090500183810383528a818151815260200191508051906020019080838360005b83811015610ff3578082015181840152602081019050610fd8565b50505050905090810190601f1680156110205780820380516001836020036101000a031916815260200191505b50838103825289818151815260200191508051906020019080838360005b8381101561105957808201518184015260208101905061103e565b50505050905090810190601f1680156110865780820380516001836020036101000a031916815260200191505b50995050505050505050505060405180910390f35b3480156110a757600080fd5b506111ae600480360381019080803573ffffffffffffffffffffffffffffffffffffffff169060200190929190803590602001908201803590602001908080601f0160208091040260200160405190810160405280939291908181526020018383808284378201915050505050509192919290803590602001908201803590602001908080601f0160208091040260200160405190810160405280939291908181526020018383808284378201915050505050509192919290803590602001908201803590602001908080601f0160208091040260200160405190810160405280939291908181526020018383808284378201915050505050509192919290505050613800565b005b6060600360008373ffffffffffffffffffffffffffffffffffffffff1673ffffffffffffffffffffffffffffffffffffffff16815260200190815260200160002060030180548060200260200160405190810160405280929190818152602001828054801561123e57602002820191906000526020600020905b81548152602001906001019080831161122a575b50505050509050919050565b6060806060600460008573ffffffffffffffffffffffffffffffffffffffff1673ffffffffffffffffffffffffffffffffffffffff168152602001908152602001600020600001600460008673ffffffffffffffffffffffffffffffffffffffff1673ffffffffffffffffffffffffffffffffffffffff168152602001908152602001600020600101600460008773ffffffffffffffffffffffffffffffffffffffff1673ffffffffffffffffffffffffffffffffffffffff168152602001908152602001600020600201828054600181600116156101000203166002900480601f0160208091040260200160405190810160405280929190818152602001828054600181600116156101000203166002900480156113aa5780601f1061137f576101008083540402835291602001916113aa565b820191906000526020600020905b81548152906001019060200180831161138d57829003601f168201915b50505050509250818054600181600116156101000203166002900480601f0160208091040260200160405190810160405280929190818152602001828054600181600116156101000203166002900480156114465780601f1061141b57610100808354040283529160200191611446565b820191906000526020600020905b81548152906001019060200180831161142957829003601f168201915b50505050509150808054600181600116156101000203166002900480601f0160208091040260200160405190810160405280929190818152602001828054600181600116156101000203166002900480156114e25780601f106114b7576101008083540402835291602001916114e2565b820191906000526020600020905b8154815290600101906020018083116114c557829003601f168201915b505050505090509250925092509193909250565b6060600260008373ffffffffffffffffffffffffffffffffffffffff1673ffffffffffffffffffffffffffffffffffffffff16815260200190815260200160002060050180548060200260200160405190810160405280929190818152602001828054801561158457602002820191906000526020600020905b815481526020019060010190808311611570575b50505050509050919050565b6060806060600260008573ffffffffffffffffffffffffffffffffffffffff1673ffffffffffffffffffffffffffffffffffffffff168152602001908152602001600020600001600260008673ffffffffffffffffffffffffffffffffffffffff1673ffffffffffffffffffffffffffffffffffffffff168152602001908152602001600020600101600260008773ffffffffffffffffffffffffffffffffffffffff1673ffffffffffffffffffffffffffffffffffffffff168152602001908152602001600020600201828054600181600116156101000203166002900480601f0160208091040260200160405190810160405280929190818152602001828054600181600116156101000203166002900480156116f05780601f106116c5576101008083540402835291602001916116f0565b820191906000526020600020905b8154815290600101906020018083116116d357829003601f168201915b50505050509250818054600181600116156101000203166002900480601f01602080910402602001604051908101604052809291908181526020018280546001816001161561010002031660029004801561178c5780601f106117615761010080835404028352916020019161178c565b820191906000526020600020905b81548152906001019060200180831161176f57829003601f168201915b50505050509150808054600181600116156101000203166002900480601f0160208091040260200160405190810160405280929190818152602001828054600181600116156101000203166002900480156118285780601f106117fd57610100808354040283529160200191611828565b820191906000526020600020905b81548152906001019060200180831161180b57829003601f168201915b505050505090509250925092509193909250565b6060600080600061184b613a5d565b611853613a5d565b600060056000898152602001908152602001600020600001600560008a815260200190815260200160002060010160009054906101000a900473ffffffffffffffffffffffffffffffffffffffff16600560008b815260200190815260200160002060020160009054906101000a900473ffffffffffffffffffffffffffffffffffffffff16600560008c815260200190815260200160002060030160009054906101000a900473ffffffffffffffffffffffffffffffffffffffff16600560008d8152602001908152602001600020600401600560008e8152602001908152602001600020600601600560008f815260200190815260200160002060080160009054906101000a900461ffff16868054600181600116156101000203166002900480601f0160208091040260200160405190810160405280929190818152602001828054600181600116156101000203166002900480156119f65780601f106119cb576101008083540402835291602001916119f6565b820191906000526020600020905b8154815290600101906020018083116119d957829003601f168201915b5050505050965082600280602002604051908101604052809291908260028015611a35576020028201915b815481526020019060010190808311611a21575b5050505050925081600280602002604051908101604052809291908260028015611a74576020028201915b815481526020019060010190808311611a60575b505050505091508061ffff1690509650965096509650965096509650919395979092949650565b6060806060600360008573ffffffffffffffffffffffffffffffffffffffff1673ffffffffffffffffffffffffffffffffffffffff168152602001908152602001600020600001600360008673ffffffffffffffffffffffffffffffffffffffff1673ffffffffffffffffffffffffffffffffffffffff168152602001908152602001600020600101600360008773ffffffffffffffffffffffffffffffffffffffff1673ffffffffffffffffffffffffffffffffffffffff168152602001908152602001600020600201828054600181600116156101000203166002900480601f016020809104026020016040519081016040528092919081815260200182805460018160011615610100020316600290048015611bfb5780601f10611bd057610100808354040283529160200191611bfb565b820191906000526020600020905b815481529060010190602001808311611bde57829003601f168201915b50505050509250818054600181600116156101000203166002900480601f016020809104026020016040519081016040528092919081815260200182805460018160011615610100020316600290048015611c975780601f10611c6c57610100808354040283529160200191611c97565b820191906000526020600020905b815481529060010190602001808311611c7a57829003601f168201915b50505050509150808054600181600116156101000203166002900480601f016020809104026020016040519081016040528092919081815260200182805460018160011615610100020316600290048015611d335780601f10611d0857610100808354040283529160200191611d33565b820191906000526020600020905b815481529060010190602001808311611d1657829003601f168201915b505050505090509250925092509193909250565b60011515600260008373ffffffffffffffffffffffffffffffffffffffff1673ffffffffffffffffffffffffffffffffffffffff16815260200190815260200160002060060160009054906101000a900460ff161515141515611da957600080fd5b3373ffffffffffffffffffffffffffffffffffffffff168173ffffffffffffffffffffffffffffffffffffffff1614151515611de457600080fd5b81600260008373ffffffffffffffffffffffffffffffffffffffff1673ffffffffffffffffffffffffffffffffffffffff1681526020019081526020016000206004015401600260008373ffffffffffffffffffffffffffffffffffffffff1673ffffffffffffffffffffffffffffffffffffffff168152602001908152602001600020600401819055506001600260008373ffffffffffffffffffffffffffffffffffffffff1673ffffffffffffffffffffffffffffffffffffffff1681526020019081526020016000206003015401600260008373ffffffffffffffffffffffffffffffffffffffff1673ffffffffffffffffffffffffffffffffffffffff168152602001908152602001600020600301819055505050565b816005600085815260200190815260200160002060030160006101000a81548173ffffffffffffffffffffffffffffffffffffffff021916908373ffffffffffffffffffffffffffffffffffffffff16021790555080600560008581526020019081526020016000206004016001600281101515611f7957fe5b01819055506000600560008581526020019081526020016000206006016001600281101515611fa457fe5b0181905550600460008373ffffffffffffffffffffffffffffffffffffffff1673ffffffffffffffffffffffffffffffffffffffff1681526020019081526020016000206003018390806001815401808255809150509060018203906000526020600020016000909192909190915055504260016005600086815260200190815260200160002060000160405180828054600181600116156101000203166002900480156120895780601f10612067576101008083540402835291820191612089565b820191906000526020600020905b815481529060010190602001808311612075575b5050915050908152602001604051809103902060080160016002811015156120ad57fe5b0181905550505050565b826005600086815260200190815260200160002060000190805190602001906120e1929190613a7f565b50816005600086815260200190815260200160002060020160006101000a81548173ffffffffffffffffffffffffffffffffffffffff021916908373ffffffffffffffffffffffffffffffffffffffff1602179055508060056000868152602001908152602001600020600401600060028110151561215c57fe5b0181905550600060056000868152602001908152602001600020600601600060028110151561218757fe5b0181905550336005600086815260200190815260200160002060010160006101000a81548173ffffffffffffffffffffffffffffffffffffffff021916908373ffffffffffffffffffffffffffffffffffffffff16021790555060016005600086815260200190815260200160002060080160006101000a81548161ffff021916908361ffff160217905550426001846040518082805190602001908083835b60208310151561224c5780518252602082019150602081019050602083039250612227565b6001836020036101000a0380198251168184511680821785525050505050509050019150509081526020016040518091039020600801600060028110151561229057fe5b0181905550600260003373ffffffffffffffffffffffffffffffffffffffff1673ffffffffffffffffffffffffffffffffffffffff168152602001908152602001600020600501849080600181540180825580915050906001820390600052602060002001600090919290919091505550600360008373ffffffffffffffffffffffffffffffffffffffff1673ffffffffffffffffffffffffffffffffffffffff16815260200190815260200160002060030184908060018154018082558091505090600182039060005260206000200160009091929091909150555050505050565b60011515600260003373ffffffffffffffffffffffffffffffffffffffff1673ffffffffffffffffffffffffffffffffffffffff16815260200190815260200160002060060160009054906101000a900460ff1615151415156123d557600080fd5b816001846040518082805190602001908083835b60208310151561240e57805182526020820191506020810190506020830392506123e9565b6001836020036101000a03801982511681845116808217855250505050505090500191505090815260200160405180910390206000019080519060200190612457929190613a7f565b50806001846040518082805190602001908083835b602083101515612491578051825260208201915060208101905060208303925061246c565b6001836020036101000a038019825116818451168082178552505050505050905001915050908152602001604051809103902060010190805190602001906124da929190613a7f565b50336001846040518082805190602001908083835b60208310151561251457805182526020820191506020810190506020830392506124ef565b6001836020036101000a038019825116818451168082178552505050505050905001915050908152602001604051809103902060020160006101000a81548173ffffffffffffffffffffffffffffffffffffffff021916908373ffffffffffffffffffffffffffffffffffffffff160217905550426001846040518082805190602001908083835b6020831015156125c1578051825260208201915060208101905060208303925061259c565b6001836020036101000a038019825116818451168082178552505050505050905001915050908152602001604051809103902060030181905550505050565b6000809054906101000a900473ffffffffffffffffffffffffffffffffffffffff1673ffffffffffffffffffffffffffffffffffffffff163373ffffffffffffffffffffffffffffffffffffffff1614151561265b57600080fd5b82600360008673ffffffffffffffffffffffffffffffffffffffff1673ffffffffffffffffffffffffffffffffffffffff16815260200190815260200160002060000190805190602001906126b1929190613a7f565b5081600360008673ffffffffffffffffffffffffffffffffffffffff1673ffffffffffffffffffffffffffffffffffffffff1681526020019081526020016000206001019080519060200190612708929190613a7f565b5080600360008673ffffffffffffffffffffffffffffffffffffffff1673ffffffffffffffffffffffffffffffffffffffff168152602001908152602001600020600201908051906020019061275f929190613a7f565b506001600360008673ffffffffffffffffffffffffffffffffffffffff1673ffffffffffffffffffffffffffffffffffffffff16815260200190815260200160002060040160006101000a81548160ff0219169083151502179055507f40b2d3af7e7a908ab771e3b293d2df299bb187d4ac2dcb3dbc2455fdcf5c15dd836040518080602001828103825283818151815260200191508051906020019080838360005b8381101561281d578082015181840152602081019050612802565b50505050905090810190601f16801561284a5780820380516001836020036101000a031916815260200191505b509250505060405180910390a150505050565b6000600260008373ffffffffffffffffffffffffffffffffffffffff1673ffffffffffffffffffffffffffffffffffffffff16815260200190815260200160002060030154600a600260008573ffffffffffffffffffffffffffffffffffffffff1673ffffffffffffffffffffffffffffffffffffffff16815260200190815260200160002060040154028115156128f157fe5b049050919050565b80600560008581526020019081526020016000206004018360028110151561291d57fe5b015403600560008581526020019081526020016000206004018360028110151561294357fe5b018190555080600560008581526020019081526020016000206006018360028110151561296c57fe5b015401600560008581526020019081526020016000206006018360028110151561299257fe5b0181905550505050565b6060600460008373ffffffffffffffffffffffffffffffffffffffff1673ffffffffffffffffffffffffffffffffffffffff168152602001908152602001600020600301805480602002602001604051908101604052809291908181526020018280548015612a2a57602002820191906000526020600020905b815481526020019060010190808311612a16575b50505050509050919050565b3373ffffffffffffffffffffffffffffffffffffffff166005600083815260200190815260200160002060030160009054906101000a900473ffffffffffffffffffffffffffffffffffffffff1673ffffffffffffffffffffffffffffffffffffffff16141515612aa657600080fd5b426001600560008481526020019081526020016000206000016040518082805460018160011615610100020316600290048015612b1a5780601f10612af8576101008083540402835291820191612b1a565b820191906000526020600020905b815481529060010190602001808311612b06575b50509150509081526020016040518091039020600a016001600281101515612b3e57fe5b01819055506005600082815260200190815260200160002060030160009054906101000a900473ffffffffffffffffffffffffffffffffffffffff166001600560008481526020019081526020016000206000016040518082805460018160011615610100020316600290048015612bed5780601f10612bcb576101008083540402835291820191612bed565b820191906000526020600020905b815481529060010190602001808311612bd9575b505091505090815260200160405180910390206006016001600281101515612c1157fe5b0160006101000a81548173ffffffffffffffffffffffffffffffffffffffff021916908373ffffffffffffffffffffffffffffffffffffffff160217905550600180600560008481526020019081526020016000206000016040518082805460018160011615610100020316600290048015612cc45780601f10612ca2576101008083540402835291820191612cc4565b820191906000526020600020905b815481529060010190602001808311612cb0575b50509150509081526020016040518091039020600c0160006101000a81548161ffff021916908361ffff16021790555060036005600083815260200190815260200160002060080160006101000a81548161ffff021916908361ffff16021790555050565b3373ffffffffffffffffffffffffffffffffffffffff166005600083815260200190815260200160002060020160009054906101000a900473ffffffffffffffffffffffffffffffffffffffff1673ffffffffffffffffffffffffffffffffffffffff16141515612d9957600080fd5b426001600560008481526020019081526020016000206000016040518082805460018160011615610100020316600290048015612e0d5780601f10612deb576101008083540402835291820191612e0d565b820191906000526020600020905b815481529060010190602001808311612df9575b50509150509081526020016040518091039020600a016000600281101515612e3157fe5b01819055506005600082815260200190815260200160002060020160009054906101000a900473ffffffffffffffffffffffffffffffffffffffff166001600560008481526020019081526020016000206000016040518082805460018160011615610100020316600290048015612ee05780601f10612ebe576101008083540402835291820191612ee0565b820191906000526020600020905b815481529060010190602001808311612ecc575b505091505090815260200160405180910390206006016000600281101515612f0457fe5b0160006101000a81548173ffffffffffffffffffffffffffffffffffffffff021916908373ffffffffffffffffffffffffffffffffffffffff16021790555060006001600560008481526020019081526020016000206000016040518082805460018160011615610100020316600290048015612fb85780601f10612f96576101008083540402835291820191612fb8565b820191906000526020600020905b815481529060010190602001808311612fa4575b50509150509081526020016040518091039020600c0160006101000a81548161ffff021916908361ffff16021790555060026005600083815260200190815260200160002060080160006101000a81548161ffff021916908361ffff16021790555050565b6000809054906101000a900473ffffffffffffffffffffffffffffffffffffffff1673ffffffffffffffffffffffffffffffffffffffff163373ffffffffffffffffffffffffffffffffffffffff1614151561307857600080fd5b82600460008673ffffffffffffffffffffffffffffffffffffffff1673ffffffffffffffffffffffffffffffffffffffff16815260200190815260200160002060000190805190602001906130ce929190613a7f565b5081600460008673ffffffffffffffffffffffffffffffffffffffff1673ffffffffffffffffffffffffffffffffffffffff1681526020019081526020016000206001019080519060200190613125929190613a7f565b5080600460008673ffffffffffffffffffffffffffffffffffffffff1673ffffffffffffffffffffffffffffffffffffffff168152602001908152602001600020600201908051906020019061317c929190613a7f565b506001600460008673ffffffffffffffffffffffffffffffffffffffff1673ffffffffffffffffffffffffffffffffffffffff16815260200190815260200160002060040160006101000a81548160ff0219169083151502179055507f40b2d3af7e7a908ab771e3b293d2df299bb187d4ac2dcb3dbc2455fdcf5c15dd836040518080602001828103825283818151815260200191508051906020019080838360005b8381101561323a57808201518184015260208101905061321f565b50505050905090810190601f1680156132675780820380516001836020036101000a031916815260200191505b509250505060405180910390a150505050565b606080600080613288613aff565b613290613a5d565b613298613a5d565b6001886040518082805190602001908083835b6020831015156132d057805182526020820191506020810190506020830392506132ab565b6001836020036101000a03801982511681845116808217855250505050505090500191505090815260200160405180910390206000016001896040518082805190602001908083835b60208310151561333e5780518252602082019150602081019050602083039250613319565b6001836020036101000a038019825116818451168082178552505050505050905001915050908152602001604051809103902060010160018a6040518082805190602001908083835b6020831015156133ac5780518252602082019150602081019050602083039250613387565b6001836020036101000a038019825116818451168082178552505050505050905001915050908152602001604051809103902060020160009054906101000a900473ffffffffffffffffffffffffffffffffffffffff1660018b6040518082805190602001908083835b60208310151561343b5780518252602082019150602081019050602083039250613416565b6001836020036101000a03801982511681845116808217855250505050505090500191505090815260200160405180910390206003015460018c6040518082805190602001908083835b6020831015156134aa5780518252602082019150602081019050602083039250613485565b6001836020036101000a038019825116818451168082178552505050505050905001915050908152602001604051809103902060060160018d6040518082805190602001908083835b60208310151561351857805182526020820191506020810190506020830392506134f3565b6001836020036101000a038019825116818451168082178552505050505050905001915050908152602001604051809103902060080160018e6040518082805190602001908083835b6020831015156135865780518252602082019150602081019050602083039250613561565b6001836020036101000a0380198251168184511680821785525050505050509050019150509081526020016040518091039020600a01868054600181600116156101000203166002900480601f0160208091040260200160405190810160405280929190818152602001828054600181600116156101000203166002900480156136515780601f1061362657610100808354040283529160200191613651565b820191906000526020600020905b81548152906001019060200180831161363457829003601f168201915b50505050509650858054600181600116156101000203166002900480601f0160208091040260200160405190810160405280929190818152602001828054600181600116156101000203166002900480156136ed5780601f106136c2576101008083540402835291602001916136ed565b820191906000526020600020905b8154815290600101906020018083116136d057829003601f168201915b5050505050955082600280602002604051908101604052809291908260028015613762576020028201915b8160009054906101000a900473ffffffffffffffffffffffffffffffffffffffff1673ffffffffffffffffffffffffffffffffffffffff1681526020019060010190808311613718575b50505050509250816002806020026040519081016040528092919082600280156137a1576020028201915b81548152602001906001019080831161378d575b50505050509150806002806020026040519081016040528092919082600280156137e0576020028201915b8154815260200190600101908083116137cc575b505050505090509650965096509650965096509650919395979092949650565b6000809054906101000a900473ffffffffffffffffffffffffffffffffffffffff1673ffffffffffffffffffffffffffffffffffffffff163373ffffffffffffffffffffffffffffffffffffffff1614151561385b57600080fd5b82600260008673ffffffffffffffffffffffffffffffffffffffff1673ffffffffffffffffffffffffffffffffffffffff16815260200190815260200160002060000190805190602001906138b1929190613a7f565b5081600260008673ffffffffffffffffffffffffffffffffffffffff1673ffffffffffffffffffffffffffffffffffffffff1681526020019081526020016000206001019080519060200190613908929190613a7f565b5080600260008673ffffffffffffffffffffffffffffffffffffffff1673ffffffffffffffffffffffffffffffffffffffff168152602001908152602001600020600201908051906020019061395f929190613a7f565b506001600260008673ffffffffffffffffffffffffffffffffffffffff1673ffffffffffffffffffffffffffffffffffffffff16815260200190815260200160002060060160006101000a81548160ff0219169083151502179055507f40b2d3af7e7a908ab771e3b293d2df299bb187d4ac2dcb3dbc2455fdcf5c15dd836040518080602001828103825283818151815260200191508051906020019080838360005b83811015613a1d578082015181840152602081019050613a02565b50505050905090810190601f168015613a4a5780820380516001836020036101000a031916815260200191505b509250505060405180910390a150505050565b6040805190810160405280600290602082028038833980820191505090505090565b828054600181600116156101000203166002900490600052602060002090601f016020900481019282601f10613ac057805160ff1916838001178555613aee565b82800160010185558215613aee579182015b82811115613aed578251825591602001919060010190613ad2565b5b509050613afb9190613b21565b5090565b6040805190810160405280600290602082028038833980820191505090505090565b613b4391905b80821115613b3f576000816000905550600101613b27565b5090565b905600a165627a7a72305820ca199a9e891d8f07389b0d97b57a8e43d161689d24c2abaf116d3d0efb060af90029",
  "source": "pragma solidity ^0.4.0;\n\ncontract fruittrack{\n    address owner;\n\n    event Register(string name);\n\n    mapping(string=>fruit) goods;\n\n    mapping(address=>farmer) farm;\n    mapping(address=>distributor) distri;\n    mapping(address=>market) mark;\n    mapping(uint=>shipment) ship;\n    // mapping(address=>ord) order;\n\n    struct fruit{\n        string name;        \n        string desc;\n        address farmer_;\n        uint256 harv_date;\n        uint price;\n        uint quantity;\n\n        address[2] partner;\n        uint256[2] sendDate;\n        uint256[2] receiveDate;\n        uint16 status;\n    }\n\n    // struct ord{\n    //     string kFruit;\n    //     uint quantity;\n    //     address farmer;\n    //     bool send;\n    // }\n\n    struct shipment{\n        string code;\n        address rFarm;\n        address rDistri;\n        address rMarket;\n        uint[2] gfruit;\n        uint[2] bfruit;\n        uint16 status;\n    }\n\n    struct farmer{\n        string name;\n        string cityState;\n        string country;\n        uint data; //untuk data\n        uint rating; //untuk rating\n        uint[] lTrackF;\n        bool exist;\n    }\n\n    struct distributor{\n        string name; \n        string cityState;\n        string country;\n        uint[] lTrackD;\n\n        bool exist;\n    }\n\n    struct market{\n        string name;\n        string cityState;\n        string country;\n        uint[] lTrackM;\n\n        bool exist;\n    }\n    \n    constructor() public{\n        owner = msg.sender;\n    }\n    \n    //pendaftaran produsen\n    function newfarmer(address pub, string name, string cityState, string country) public{\n        require(msg.sender == owner);\n        farm[pub].name = name;\n        farm[pub].cityState = cityState;\n        farm[pub].country = country;\n        farm[pub].exist = true;\n        emit Register(name);\n    }\n    \n    //pendaftaran distributor\n    function newdistri(address pub, string name, string cityState, string country) public{\n        require(msg.sender == owner);\n        distri[pub].name = name;\n        distri[pub].cityState = cityState;\n        distri[pub].country = country;\n        distri[pub].exist = true;\n        emit Register(name);\n    }\n\n    //pendaftaran market\n    function newmarket(address pub, string name, string cityState, string country) public{\n        require(msg.sender == owner);\n        mark[pub].name = name;\n        mark[pub].cityState = cityState;\n        mark[pub].country = country;\n        mark[pub].exist = true;\n        emit Register(name);\n    }\n  \n    //fungsi untuk daftar buah baru\n    function newfruit(string code, string _name, string _desc) public{\n        require(farm[msg.sender].exist == true);\n        goods[code].name = _name;\n        goods[code].desc = _desc;\n        goods[code].farmer_ = msg.sender;\n        goods[code].harv_date = block.timestamp;\n    }\n    \n    //mengirim buah\n    function sendFruitFarmer(uint trackid, string code, address next_, uint qty) public{\n        ship[trackid].code = code;\n        ship[trackid].rDistri = next_;\n        ship[trackid].gfruit[0] = qty;\n        ship[trackid].bfruit[0] = 0;\n        ship[trackid].rFarm = msg.sender;\n        ship[trackid].status = 1;\n        goods[code].sendDate[0] = block.timestamp;\n\n        farm[msg.sender].lTrackF.push(trackid);\n        distri[next_].lTrackD.push(trackid);\n    }\n    \n    function sendFruitDistributor(uint trackid, address next_, uint qty) public{\n        ship[trackid].rMarket = next_;\n        ship[trackid].gfruit[1] = qty;\n        ship[trackid].bfruit[1] = 0;\n        mark[next_].lTrackM.push(trackid);\n\n        goods[ship[trackid].code].sendDate[1] = block.timestamp;\n    }\n    \n    //penerimaan\n    function recieve_dis(uint trackid) public{\n        //require(distri[msg.sender].exist == true);\n        require(ship[trackid].rDistri == msg.sender);\n        goods[ship[trackid].code].receiveDate[0] = block.timestamp;\n        goods[ship[trackid].code].partner[0] = ship[trackid].rDistri;\n        goods[ship[trackid].code].status = 0;\n        ship[trackid].status = 2;\n    }\n\n    function recieve_mar(uint trackid) public{\n        //require(mark[msg.sender].exist == true);\n        require(ship[trackid].rMarket == msg.sender);\n        goods[ship[trackid].code].receiveDate[1] = block.timestamp;\n        goods[ship[trackid].code].partner[1] = ship[trackid].rMarket;\n        goods[ship[trackid].code].status = 1;\n        ship[trackid].status = 3;\n    }\n\n    //fitur rating\n    function setRating (uint x, address farmer_) public {\n        require(farm[farmer_].exist == true);\n        require(farmer_ != msg.sender);\n\n        farm[farmer_].rating = farm[farmer_].rating + x;\n        farm[farmer_].data = farm[farmer_].data + 1;\n\t}\n\n    function getRating (address farmer_) public constant returns (uint) {\n        return ((farm[farmer_].rating * 10) / farm[farmer_].data);\n    }\n\n    //show data buah\n    function getFruit(string code) view public returns(string, string,address, uint256, address[2], uint256[2], uint[2]){\n        return (goods[code].name, goods[code].desc, goods[code].farmer_,\n                goods[code].harv_date, goods[code].partner, goods[code].sendDate, goods[code].receiveDate);\n    }\n\n    //show data farmer\n    function getFarm(address account) view public returns(string,string,string){\n        return (farm[account].name, farm[account].cityState, farm[account].country);\n    }\n    \n    //show distributor\n    function getDistri(address account) view public returns(string,string,string){\n        return (distri[account].name, distri[account].cityState, distri[account].country);\n    }\n    \n    //update buah\n    function updateQuality(uint sCode, uint status, uint qFruit) public {\n        ship[sCode].gfruit[status] = ship[sCode].gfruit[status] - qFruit;\n        ship[sCode].bfruit[status] = ship[sCode].bfruit[status] + qFruit;\n    }\n\n    //show market\n    function getMark(address account) view public returns(string,string,string){\n        return (mark[account].name, mark[account].cityState, mark[account].country);\n    }\n\n    function getShip(uint track) view public returns(string,address, address, address, uint[2], uint[2], uint){\n        return (ship[track].code, \n        ship[track].rFarm, \n        ship[track].rDistri, \n        ship[track].rMarket,\n        ship[track].gfruit,\n        ship[track].bfruit,\n        ship[track].status );\n    }\n\n    function getTFarm(address account) view public returns (uint[]){\n        return farm[account].lTrackF;\n    }\n    function getTDis(address account) view public returns (uint[]){\n        return distri[account].lTrackD;\n    }\n    function getM(address account) view public returns (uint[]){\n        return mark[account].lTrackM;\n    }\n}",
  "sourcePath": "D:\\Nay\\fruitfinal\\contracts\\fruittrack.sol",
  "compiler": {
    "name": "solc",
    "version": "0.4.24+commit.e67f0147.Emscripten.clang"
  },
  "schemaVersion": "2.0.1",
  "updatedAt": "2019-01-13T12:29:53.237Z"
}